S01700004763634170706C69636174696F6E342E7372656358
S113000090240020150100000D0200000D020000E4
S113001000000000000000000000000000000000DC
S11300200000000000000000000000000D020000BD
S113003000000000000000000D0200000D0200009E
S11300400D0200000D0200000D0200000D02000070
S11300500D0200000D0200000D0200000D02000060
S11300600D0200000D0200000D0200000D02000050
S11300700D0200000D0200000D0200000D02000040
S11300800D0200000D0200000D0200000D02000030
S11300900D02000000000000000000000D0200003E
S11300A00D0200000D0200000D0200000D02000010
S11300B00000000010B5064C2378002B07D1054B37
S11300C0002B02D0044800E000BF0123237010BDC0
S11300D03404002000000000BC120000084B10B5DE
S11300E0002B03D00749084800E000BF0748036815
S11300F0002B00D110BD064B002BFBD09847F9E72D
S11301000000000038040020BC120000BC120000F3
S11301100000000080B582B000AF2F4B7B602F4BF6
S11301203B607A683B689A420CD007E03B681A1D32
S11301303A607A68111D796012681A603A68284B2F
S11301409A42F3D3274B3B6004E03B681A1D3A60A4
S113015000221A603A68244B9A42F6D3234B7B6000
S1130160234B7A68FF218A439A60224A90235B00DA
S11301700221D150204AD37803218B43191C022336
S11301800B43D3701C4AD3780C218B43191C0823CE
S11301900B43D370194A937B30218B43191C2023C2
S11301A00B439373154A937B0C218B43191C08232F
S11301B00B439373114A937B03218B43191C022332
S11301C00B4393730E4A536880210B4353600D4BCA
S11301D098470D4B9847FEE7BC1200000000002032
S11301E034040020340400208C04002000000000AB
S11301F000ED00E000700041005000410048004163
S113020000400041351000002D02000080B500AF11
S1130210FEE7000080B500AF024B034A1A60C046F7
S1130220BD4680BD0000002040420F00F0B595B0EF
S113023006AF364B9847364A136A36490B40136269
S1130240354B9847354B9847282308229446BC449D
S11302506344334A03CA03C3202308229446BC449C
S11302606344180007231A0000212E4B98472823C3
S11302700822BA18D2180823002168202A4CA04763
S113028020230822BA18D218072300216820274CFB
S1130290A0470823FB1800229A77202308229446BB
S11302A0BC4463441B797B6020220823FB189B1801
S11302B05B79190020220823FB189B189B791C00EA
S11302C020220823FB189B189B781D00202208235A
S11302D0FB189B185B781E0020220823FB189B1830
S11302E01B78134A08203818049303960295019446
S11302F000917B681F210F4CA0470823FA180E4B6E
S1130300110018000D4B9847BAE7C04615020000CB
S113031000080040FFFCFFFF41030000F903000058
S11303208C1200007D100000610D0000090E000019
S1130330681200000D0D0000881200002D06000058
S113034090B583B000AF254B244A12688021C900C0
S11303500A431A6021494B228B5C012003438B54CE
S11303601E494A228B5C012003438B541B4A1B49C0
S11303703523CB5CDBB202210B43D9B23523D154F4
S1130380164A16493523CB5CDBB220210B43D9B284
S11303903523D154124B124A126A04210A431A62B9
S11303A0104B114A5A80114B114A1A60114B002408
S11303B03B607C600D4BC02292025A600B4A3B6842
S11303C07C689BB29381094B084A126802210A4354
S11303D01A60C046BD4603B090BDC046004400410B
S11303E000040040000C00401440000000080042DB
S11303F00400314015FB000090B583B000AF2E4AD5
S1130400136A2E490B4013622D4A56230721D154F7
S11304102B4A57230721D154294A29493B23CB5C32
S1130420DBB202210B43D9B23B23D154244A2449E1
S11304303B23CB5CDBB220210B43D9B23B23D15409
S1130440204B204A126A20210A431A621E4B1F4A7B
S11304505A801D4B1C4A52681D490A435A60222384
S113046000243B607C601B4A3B687C68D9B2D3683B
S1130470FF200140FF2083430B43D360C046154B4C
S1130480DB69002BFBD1134B134A1A60C046114B96
S1130490DB69002BFBD10F4A0E4B5B8B9BB2102107
S11304A00B439BB25383C0460A4BDB69002BFBD141
S11304B0C046BD4603B090BD00080040FFFCFFFFEE
S11304C00044004100040040000C004017440000B8
S11304D004060100001400421600300080B582B00A
S11304E000AF0200FB1D1A70C046084B1B7EDBB236
S11304F01A0001231340F8D0044AFB1D1B789BB259
S11305001385C046BD4602B080BDC0460008004207
S113051080B582B000AF0200FB1D1A70FB1D1B7872
S11305200A2B02D10D20054B9847FB1D1B781800A0
S1130530024B9847C046BD4602B080BDDD040000B2
S113054080B582B000AF0200FB1D1A70054B1B681A
S1130550591C044A1160FA1D12781A70C046BD462F
S113056002B080BD5004002080B582B000AF02000C
S1130570FB1D1A70FB1D1B78092B07D90B4B1B782D
S1130580002B01D0372302E0572300E03023FA1D6B
S113059012789B18DBB21800054B9847054B0122D3
S11305A01A70C046BD4602B080BDC0466404002037
S11305B0410500006504002080B584B000AF786078
S11305C00F23FB1800221A70154B1B681B041A0C0E
S11305D0134B1A600CE0124B1A687B68D21A104B4A
S11305E01A600F23FB181A780F23FB1801321A70B4
S11305F00B4B1A687B689A42EDD20A4B1B78002B8E
S113060004D10F23FB181B78002B05D00F23FB18F4
S11306101B781800044B9847C046BD4604B080BD03
S11306206004002065040020690500000FB480B553
S113063084B000AF1C23FB183B601FE10F23FB18A1
S11306401B78252B06D00F23FB181B781800964B1C
S1130650984713E1FB1D00221A70BB1D00221A707B
S1130660BB695A1CBA610F22BA181B7813700F2386
S1130670FB181B78302B09D1BB695A1CBA610F22B5
S1130680BA181B781370FB1D01221A700F23FB1874
S11306901B782F2B2BD90F23FB181B78392B26D82B
S11306A0BB1D00221A7018E0BB1D1B789B00DAB238
S11306B0BB1D1B78D318DBB2DB18DAB20F23FB188F
S11306C01B78D318DAB2BB1D303A1A70BB695A1CB6
S11306D0BA610F22BA181B7813700F23FB181B780A
S11306E02F2B04D90F23FB181B78392BDCD96F4B24
S11306F06F4A1A606D4B1B68BB606E4B00221A7008
S11307000F23FB181B78632B00D166E008DC252B34
S113071000D171E0582B3CD0002B00D1BCE06EE03E
S1130720732B63D002DC642B05D068E0752B02D0F8
S1130730782B2ED063E03B681A1D3A601A685E4B32
S11307401A600F23FB181B78642B0CD15A4B1B68BF
S1130750002B08DA584B1B685B421A00564B1A6090
S11307602D20564B9847564B1800564B9847FA2362
S11307709B001800534B98476420524B98470A201B
S1130780504B98474C4B1B68DBB218004E4B9847B4
S113079036E00F23FB181B78583B5A425341DBB217
S11307A01A004A4B1A703B681A1D3A601A68424B89
S11307B01A6080235B011800424B984780235B003A
S11307C01800404B984710203E4B98473A4B1B6803
S11307D0DBB218003C4B984712E03B681A1D3A60A4
S11307E01B68DBB21800354B984709E03B681A1DBB
S11307F03A601B68BB6003E02520304B9847C04635
S11308002A4B1B6800221A70284BBA681A6004E04D
S1130810BB1D1A78BB1D013A1A70244B1B68591C66
S1130820224A11601B78002B0ED0BB1D1B78002BB5
S1130830EED109E0FB1D1B78002B01D0302300E032
S113084020231800184B9847BB1D1B78BA1D591E4E
S11308501170002BEED105E00F23FB181B78180054
S1130860114B9847BB685A1CBA600F22BA181B7800
S113087013700F23FB181B78002BEDD1BB695A1C96
S1130880BA610F22BA181B7813700F23FB181B7858
S1130890002B00D0D2E600E0C046C046BD4604B0FE
S11308A080BC08BC04B018471105000050040020A7
S11308B05404002065040020600400204105000069
S11308C010270000B9050000690500006404002039
S11308D080B584B000AF78600023FB6002E0FB6861
S11308E00133FB607A68FB68D3181B78002BF6D1C0
S11308F0FB681800BD4604B080BD000080B58AB016
S113090000AFF860B9607A603B603B6B7B620023A8
S11309103B62BB68102B01D900237BE0FB68002BF2
S113092007DA3B68002B04D101233B62FB685B427E
S1130930FB60FA68394BB968100098470B00BB613B
S11309407B6A5A1C7A62BA69092A04DCBA69D2B28F
S11309503032D2B20BE07A68002A01D0412200E0A2
S11309606122B969C9B25218D2B20A3AD2B21A7023
S1130970FA682B4BB968100098470300FB60FB68CA
S1130980002BD6DC7A6A3B6BD31AFB6107E07B6AE7
S11309905A1C7A6230221A70FB690133FB61FA69CE
S11309A07B6B9A42F3D33B6A002B04D07B6A5A1CBC
S11309B07A622D221A707B6A00221A707A6A3B6B63
S11309C0D31A7B610023FB611EE03A6BFB69D218EA
S11309D01323FB1812781A703A6BFB69D3187969E0
S11309E0FA698A1A013A396B8A1812781A707A6984
S11309F0FB69D31A013B3A6BD3181322BA18127845
S1130A001A70FB690133FB617B695A08FB699A42DE
S1130A10DBD87B691800BD460AB080BD29100000F0
S1130A201D0F000080B582B000AF786039603B686C
S1130A305B681A003B681B68D31A01331A003B68D1
S1130A409B689A4201D300230CE03B685B68591C05
S1130A503A6851607A68D2B21A703B685B680022C7
S1130A601A7001231800BD4602B080BD80B586B05F
S1130A7000AFF860B9607A607B689A687B685B68ED
S1130A8019007B681B68CB1AD31A5A1EBB689A429A
S1130A900AD27B689A687B685B6819007B681B686C
S1130AA0CB1AD31A013BBB6000237B610CE07B684B
S1130AB05B68591C7A685160F9687A698A181278F7
S1130AC01A707B6901337B617A69BB689A42EED301
S1130AD07B685B6800221A70BB681800BD4606B0CC
S1130AE080BD000090B593B002AFF860B9607A6041
S1130AF03B602823FB18FA681A602823FB18FA685D
S1130B005A602823FB18BA689A60D7E02823FB1898
S1130B105B681A002823FB181B68D31A01331A00D8
S1130B202823FB189B689A4200D3D5E03F23FB1887
S1130B301B78252B09D03F23FB181B782822BA18D1
S1130B40110018006D4B9847B8E03E23FB180022B3
S1130B501A707B685A1C7A603F22BA181B7813708B
S1130B603F23FB181B78302B24D17B685A1C7A60F6
S1130B703F22BA181B7813703F23FB181B78002BF5
S1130B8000D1ABE03F23FB181B782F2B0BD93F235D
S1130B90FB181B78392B06D83E23FB183F22BA18C2
S1130BA01278303A1A707B685A1C7A603F22BA185D
S1130BB01B7813703F23FB181B78642B0FD007DCC2
S1130BC0582B30D0632B51D0002B00D188E06BE040
S1130BD0752B04D0782B26D0732B54D064E03B685B
S1130BE01A1D3A601B6818003F23FB181B78753BDD
S1130BF05A425341DBB21A003E23FB181B7801937F
S1130C001023FB180093130000220A213C4CA04738
S1130C100300BB632823FA18B96B1023FB181800D0
S1130C20384B98474AE03B681A1D3A601B68180025
S1130C303F23FB181B78583B5A425341DBB21A003E
S1130C403E23FB181B7801931023FB180093012308
S1130C5010212B4CA0470300BB632823FA18B96B5F
S1130C601023FB181800274B984727E03B681A1DF0
S1130C703A601B68DBB21A002823FB181900100025
S1130C801E4B98471AE03B681A1D3A601B687B6349
S1130C907B6B18001C4B984701002823FA187B6BC8
S1130CA01800184B984709E03F23FB181B782822AB
S1130CB0BA1811001800114B9847C0467B685A1C9B
S1130CC07A603F22BA181B7813703F23FB181B78F5
S1130CD0002B00D01AE704E0C04602E0C04600E062
S1130CE0C0462823FB185B681A002823FB181B68DE
S1130CF0D31A1800BD4611B090BDC046250A0000A5
S1130D00FD0800006D0A0000D10800000CB490B585
S1130D1085B000AF786039602423FB18BB60BB68E2
S1130D203A6A39687868064CA0470300FB60FB68A0
S1130D301800BD4605B090BC08BC02B01847C046B8
S1130D40E50A000080B500AF044A5368C021890257
S1130D500B435360C046BD4680BDC04600140042EC
S1130D6090B585B000AF040008003A601900FB1D7F
S1130D70221C1A70BB1D021C1A707B1D0A1C1A70DF
S1130D801F4BFA1D127852005A62C0461C4B1B7E40
S1130D90DB07DB0FDBB2002BF8D01949BB1D28227F
S1130DA01B788B54C046164B1B7EDB07DB0FDBB274
S1130DB0002BF8D00023FB6017E0FB683A68D218D8
S1130DC00B23FB1812781A700D490B23FB182822E9
S1130DD01B788B54C0460A4B1B7EDB07DB0FDBB250
S1130DE0002BF8D0FB680133FB607B1D1A78FB688D
S1130DF09A42E2DC034B9847C046BD4605B090BD1D
S1130E0000140042450D000090B585B000AF040009
S1130E1008003A601900FB1D221C1A70BB1D021C3D
S1130E201A707B1D0A1C1A70384BFA1D1278520076
S1130E305A62C046354B1B7EDB07DB0FDBB2002B4F
S1130E40F8D03249BB1D28221B788B54C0462F4B47
S1130E501B7EDB07DB0FDBB2002BF8D02B4BFA1D1C
S1130E601278520001210A435A62C046274B1B7E66
S1130E709B07DB0FDBB2002BF8D00023FB6039E0CB
S1130E8022490B23FB1828228A5C1A70FB685A1C1F
S1130E907B1D1B789A4206D11C4A53688021C902E3
S1130EA00B43536004E0194A536819490B405360DB
S1130EB0164A536817490B40802189020B4353603B
S1130EC0C046124BDB695B07DB0FDBB2002BF8D1AA
S1130ED0FB683A68D3180B22BA1812781A70C04605
S1130EE00A4B1B7E9B07DB0FDBB2002BF8D0FB68A1
S1130EF00133FB607B1D1A78FB689A42C0DC064B09
S1130F009847C046BD4605B090BDC0460014004297
S1130F10FFFFFBFFFFFFFCFF450D0000002243081D
S1130F208B4274D303098B425FD3030A8B4244D3AD
S1130F30030B8B4228D3030C8B420DD3FF220902EF
S1130F4012BA030C8B4202D31212090265D0030BAE
S1130F508B4219D300E0090AC30B8B4201D3CB03A4
S1130F60C01A5241830B8B4201D38B03C01A5241E6
S1130F70430B8B4201D34B03C01A5241030B8B42E8
S1130F8001D30B03C01A5241C30A8B4201D3CB02D3
S1130F90C01A5241830A8B4201D38B02C01A5241B8
S1130FA0430A8B4201D34B02C01A5241030A8B42BB
S1130FB001D30B02C01A5241CDD2C3098B4201D3D3
S1130FC0CB01C01A524183098B4201D38B01C01A51
S1130FD0524143098B4201D34B01C01A52410309C8
S1130FE08B4201D30B01C01A5241C3088B4201D377
S1130FF0CB00C01A524183088B4201D38B00C01A24
S1131000524143088B4201D34B00C01A5241411A4A
S113101000D20146524110467047FFE701B5002057
S113102000F006F802BDC0460029F7D076E7704705
S11310307047C04670B50D4E0D4D0024AD1BAD106C
S113104005D0A300F35801349847A542F9D100F024
S113105023F9084E084D0024AD1BAD1005D0A300A4
S1131060F35801349847A542F9D170BDA412000089
S1131070A4120000A4120000AC120000F0B5830713
S113108043D0541E002A3FD0CEB20200032502E012
S11310901A00013C38D3531C16702B42F8D1032C90
S11310A02AD9FF220A40150215432A0415430F2C9E
S11310B014D927001A00103F3E09013636019E1943
S11310C0156055609560D56010329642F8D10F22B4
S11310D097431037DB191440032C0DD91A00271F2E
S11310E0BE080136B6009E1920C2B242FCD10322CA
S11310F097430437DB191440002C05D0C9B21C19DE
S1131100197001339C42FBD1F0BD14000300C6E703
S1131110034B10B5002B02D0024800F005F810BDB7
S1131120000000003911000010B501000023002266
S1131130002000F01FF810BD70B5094B094CE41AEB
S1131140A41009D0084AA518AD00ED182B68013C7D
S11311509847043D002CF9D100F0A8F870BDC046B2
S1131160B8120000BC120000FFFFFF3F7047C046EA
S11311707047C046F0B54E464546DE465746E0B594
S1131180364D83B00600286898460F009146FFF755
S1131190EDFF334B1C68A4235B00E058002852D0B9
S11311A043681F2B13DC5A1C0192002E28D1019A8C
S11311B002339B0042601F502868FFF7D9FF0020CC
S11311C003B03CBC90469946A246AB46F0BD254BC5
S11311D0002B3DD0C820400000E000BF002837D0DD
S11311E0A42200235200A15843600160A050403261
S11311F0835004328350013301930023002ED6D050
S11312009A00924682444A46882154466250C42237
S11312105200914681444A468739994012688B4668
S11312200A4394464A46614611608422414652006C
S1131230A150022EBBD102005C468D32FF321168F0
S11312400C431460B3E720004D30FF30E050A7E7B3
S11312502868FFF78DFF01204042B1E730040020E9
S11312609412000000000000253032782F2530321F
S1131270782F2530327820253032783A253032786C
S11312803A253032780000000A257300000020015E
S11312900911235108000020F8B5C046F8BC08BC69
S11312A09E46704711110000DD000000F8B5C046ED
S10F12B0F8BC08BC9E467047B500000066
S11312BC40420F000000000000000000F402002077
S11312CC5C030020C40300200000000000000000A8
S11312DC00000000000000000000000000000000FE
S11312EC00000000000000000000000000000000EE
S11312FC00000000000000000000000000000000DE
S113130C00000000000000000000000000000000CD
S113131C00000000000000000000000000000000BD
S113132C00000000000000000000000000000000AD
S113133C000000000000000000000000000000009D
S113134C000000000000000000000000000000008D
S113135C000000000000000000000000000000007D
S113136C01000000000000000E33CDAB34126DE61A
S113137CECDE05000B000000000000000000000083
S113138C000000000000000000000000000000004D
S113139C000000000000000000000000000000003D
S11313AC000000000000000000000000000000002D
S11313BC000000000000000000000000000000001D
S10716EC680400206A
S9030000FC
